:02000002B0004C
:1040000000400B009A550B00000006000C00050252
:084010000401B41400000000DB
:0440180098520B00AF
:10401C00034613F8012B002AFBD1181A01387047FC
:10402C0009480A49884208B505D0094A824202D09B
:10403C00121A01F081F80748074A0021121A01F000
:10404C0089F8014808BD00BF0CE60320F4540B00AE
:10405C0084E6032084E60320F0E7032070B5074EC6
:10406C00074C00F02BFFA41BA4080025AC4200D188
:10407C0070BD56F8043B98470135F7E7AC540B007C
:10408C00D0540B0000F020B908B500F085F8BDE85D
:10409C00084000F0CBBE00F033BB00F031BB00F0A9
:1040AC0037BB0078B0FA80F04009704701230370E9
:1040BC00704710B50446008800F09AFF606010BD90
:1040CC0010B403685A6899681B68541001EB6200BD
:1040DC00D20748BF0A595DF8044B48BFD35818475C
:1040EC0013B50A460346B0B10021816092E8030083
:1040FC006C4684E8030093E8030082E8030094E82C
:10410C00030083E803009868916890609960D16817
:10411C00D868D060D96002B010BD012A38B5044609
:10412C0002D10B68236003E0022A03D0032A0DD0CE
:10413C00002038BD0C200D68FFF7ADFF03460028AA
:10414C00F0D095E8070083E80700EBE7006800284B
:10415C00EED00C21FFF7A3FFEAE710B58368044605
:10416C0013B1032201469847204610BD38B5094DBE
:10417C000024D5E900031B1AB4EB231F09D200EB72
:10418C00041083680BB900F0CEFFC3689847013464
:10419C00EFE738BDACE60320F8B52DED028BFFF749
:1041AC00E5FF194B194C5B680622534340F6FF722E
:1041BC0093FBF2F307EE903A0025B8EEE78A264619
:1041CC002F46708837700021013500F0F8FE052D60
:1041DC0006F10406F5D10025012607EE905AF8EEFB
:1041EC00E77A0434F4EEC87AF1EE10FA08D534F814
:1041FC00020C04F8046C012100F0E1FE0135ECE73F
:10420C00BDEC028BF8BD00BFA4E6032090E60320B2
:10421C002DE9F74FD0E9008B07466FF07843ABEBF5
:10422C000800B3EB201F8A4611464FEA201202D138
:10423C00244800F075FF012A144638BF0124A41845
:10424C00AAEB08051BD2E4B19C4228BF1C462001F6
:10425C000191FFF720FF019906467019FFF740FF07
:10426C0045463046AA4500F110090CD02946FFF707
:10427C0037FF2846FFF771FF10354846F2E71C461A
:10428C00E5E72646E9E75D450AD029464846FFF7AB
:10429C0027FF2846FFF761FF103509F11009F2E7F7
:1042AC00B8F1000F05D0B9684046A1EB0801FFF743
:1042BC00F6FE06EB0414C7E90069BC6003B0BDE868
:1042CC00F08F00BFAC520B007FB5204D204E002468
:1042DC0006EB840335F8020B58800121013400F001
:1042EC005DFE052CF4D11B4C0F20002120800025F5
:1042FC0000F054FE0C200295FFF7CDFE18B1164BC2
:10430C008460C0E90035154B154C0393154B009098
:10431C000293D4E90103984211D06946FFF7E0FEFD
:10432C006368103363606846FFF717FF00F0F8FC12
:10433C004FF4165104B0BDE8704000F0E5BC0146E6
:10434C006A462046FFF764FFEDE700BF0CE603204A
:10435C0090E60320A4E60320BF400B00CD400B00E9
:10436C00ACE6032027410B000E4B0F4A10B500247E
:10437C00C3E900449A60032000F036F9214601207D
:10438C0000F03AF9094BC3E900449C60084B1C70DF
:10439C001C711C721C731C74064C208800F028FEC7
:1043AC00606010BD84E603200000FFFFACE6032034
:1043BC0090E60320A4E6032008B5024B1B685B6C57
:1043CC00019308BD4802030008B5024B1B685B68EB
:1043DC00019308BD1802030008B5024B1B685B690A
:1043EC00019308BD1802030008B5024B1B685B68FB
:1043FC00019308BD2C02030008B5024B1B689B6897
:10440C00019308BD2C02030008B5024B1B68DB6846
:10441C00019308BD2C02030008B5024B1B681B69F5
:10442C00019308BD2C02030008B5024B1B681B6BE3
:10443C00019308BD2C02030008B5024B1B681B6AD4
:10444C00019308BD2802030008B5024B1B685B6A88
:10445C00019308BD2802030008B5024B1B689B6A38
:10446C00019308BD2802030008B5024B1B68DB6AE8
:10447C00019308BD2802030008B5024B1B681B6B97
:10448C00019308BD2802030008B5024B1B685B6B47
:10449C00019308BD2802030008B5024B1B681B6C76
:1044AC00019308BD2802030008B5024B1B685B6929
:1044BC00019308BD6402030008B5024B1B689B689E
:1044CC00019308BD6802030008B5024B1B68DB684A
:1044DC00019308BD6802030008B5024B1B68DB6939
:1044EC00019308BD3002030008B5024B1B681B6A20
:1044FC00019308BD3002030008B5024B1B68DB6852
:10450C00019308BD3C02030008B5024B1B681B69F4
:10451C00019308BD3C02030008B5024B1B685B69A4
:10452C00019308BD3C02030008B5024B1B689B6954
:10453C00019308BD3C02030008B5024B1B68DB6904
:10454C00019308BD3C02030008B5024B1B681B6AB3
:10455C00019308BD3C02030008B5024B1B689B6A23
:10456C00019308BD3C02030008B5024B1B681B6C91
:10457C00019308BD3C02030008B5024B1B681B6885
:10458C00019308BD4C02030008B5024B1B685B6825
:10459C00019308BD4C02030008B5024B1B681B6954
:1045AC00019308BD4C02030008B5024B1B685B6904
:1045BC00019308BD4C02030008B5024B1B689B69B4
:1045CC00019308BD4C02030008B5024B1B68DB6964
:1045DC00019308BD4C02030008B5024B1B681B6A13
:1045EC00019308BD4C02030008B5024B1B685B68C5
:1045FC00019308BD2002030008B5024B1B68DB6A5F
:10460C00019308BD2002030008B5034B1B68D3F8C7
:10461C008830019308BD00002002030008B5034B4D
:10462C001B68D3F89430019308BD000020020300EE
:10463C0008B5024B1B68DB6B019308BD44020300F9
:10464C0008B5024B1B685B68019308BD4002030070
:10465C0008B5024B1B689B68019308BD4002030020
:10466C0008B5024B1B68DB68019308BD40020300D0
:10467C0008B5024B1B681B69019308BD400203007F
:10468C0008B5024B1B685B69019308BD400203002F
:10469C0008B5024B1B689B69019308BD40020300DF
:1046AC0008B5024B1B68DB69019308BD400203008F
:1046BC0008B5024B1B681B6A019308BD400203003E
:1046CC0008B5024B1B681B6B019308BD400203002D
:1046DC0008B5024B1B685B6B019308BD40020300DD
:1046EC0008B5024B1B681B6C019308BD400203000C
:1046FC0008B5024B1B685B6C019308BD40020300BC
:10470C0008B5024B1B681B68019308BD1C02030013
:10471C0008B5024B1B685B68019308BD1C020300C3
:10472C0008B5024B1B68DB6A019308BD1C02030031
:10473C0008B5024B1B681B6C019308BD1C020300DF
:10474C0008B5024B1B685B6C019308BD1C0203008F
:10475C00024800230360FFF72FBE00BFB8E603201A
:10476C00002240681146FFF7A3BF002240681146A3
:10477C00FFF7AEBF40680022FFF7A2BF40680022DF
:10478C0081F00101FFF78CBF002340681A461946DF
:10479C00FFF77EBF002340681A461946FFF770BF2B
:1047AC00002240681146FFF763BF002240681146A3
:1047BC00FFF74EBF406800220221FFF751BF0023D4
:1047CC0040681A46FFF73CBF024B03225A60024A6C
:1047DC001A607047BCE60320D0520B007047F8B546
:1047EC00064615460C468F18BC4206D0336814F8A2
:1047FC00011B9B6830469847F6E72846F8BD007CBD
:10480C000022FFF719BE007C0021FFF71DBE007CC3
:10481C000021FFF721BE007C0021FFF725BE007CA4
:10482C000021FFF729BE10B514210446FFF737FC11
:10483C00204610BD38B5044615464FF47A73002255
:10484C00C4E90123094B2174084623602946FFF76C
:10485C0023FEBF3008D16B69DB0705D56868FFF70D
:10486C0057FFE868FFF754FF204638BD0C530B0088
:10487C00704710B518210446FFF711FC204610BDF7
:10488C00F0B5037D062B8DB00E4600F104074FF0FA
:10489C00000412D000F1080515F8011D0A2230465B
:1048AC0000F043F9AF42044419D0002CF4D02E216F
:1048BC00304600F037F90444EEE72F236A463946B8
:1048CC000A208DF80040FFF7EFFD6846FFF7A0FBCC
:1048DC0033680246DB6869463046984704462046F2
:1048EC000DB0F0BD10B5054B0446112240F8043B49
:1048FC00002100F02FFC204610BD00BF34530B00EC
:10490C000346074A10B543F8042B01F1100251F885
:10491C00044B43F8044B9142F9D10A781A7010BD3C
:10492C0034530B0010B59DF8084044EA032343EAC6
:10493C00024242EA016104234160037510BD00008C
:10494C0007B5064B0360CB7800938B784A780978CF
:10495C00FFF7E8FF03B05DF804FB00BF34530B0016
:10496C00014B024A1A607047C4E6032040530B0007
:10497C00002340681A46FFF763BE406800220221FC
:10498C00FFF76EBE002240681146FFF761BE0022A1
:10499C0040681146FFF76CBE002340681A46194662
:1049AC00FFF76EBE002340681A461946FFF770BE2B
:1049BC0040680021FFF794BE40680021FFF798BEC5
:1049CC004068002281F00101FFF76ABE40680022B6
:1049DC00FFF776BE002240681146FFF779BE002231
:1049EC0040681146FFF764BE2DE9F04395B01446BC
:1049FC000D460746FFF776FF00211C220DA80091FB
:104A0C0000F0A8FB40230C9320466B460CAA002117
:104A1C00FFF75AFD044600284BD102460121686875
:104A2C00FFF726FE0221804622466868FFF720FE2B
:104A3C00009E81462146002E3BD0002939D1736857
:104A4C00022B03D00A2B11D0F669F4E7B8F1000F52
:104A5C00FAD0716906A8043107ADFFF771FF0FCDCD
:104A6C003C1D0FC42B6823704146EDE7B9F1000FD4
:104A7C00EAD07469102201A800F06CFB06238DF8B3
:104A8C00143001AD04F108031834186859682A462B
:104A9C0003C20833A3421546F7D101A906A807ADF6
:104AAC00FFF72EFF0FCD3C1D0FC42B68237049461A
:104ABC00CAE70098FFF700FD384615B0BDE8F08353
:104ACC00024B034A1A6000225A607047C8E6032062
:104ADC004C530B00F8B506460D468F180024BD420A
:104AEC000CD0336815F8011B9B6830469847031EA1
:104AFC0001DB1C44F3E7002C08BF1C462046F8BD24
:104B0C0013B50446084659B10191FFF781FA2368A1
:104B1C000199DB680246204602B0BDE810401847F8
:104B2C0002B010BD03689B68184730B58BB00023EA
:104B3C00012A8DF8243098BF0A2209AC0D46B1FB2E
:104B4C00F2F101FB125303F0FF03092B94BF303336
:104B5C003733DBB2AA4204F8013DEFD92146FFF707
:104B6C00CFFF0BB030BD0000014B00229A607047A4
:104B7C00D0E6032010B5044608462170FFF7ACFCC4
:104B8C0000236360204610BD054B02221A60054BC2
:104B9C00054A9A600020C3E90000FFF725BD00BF5D
:104BAC00ECE60320E0E603200000FFFF024B1A684E
:104BBC00024B1A60704700BF18E60320F0E6032092
:104BCC0070474174704708B5007CFFF7C5FC20EABC
:104BDC00E07008BD08B5007CFFF796FC20EAE07099
:104BEC0008BD08B5007CFFF79FFC40EAE07008BDEB
:104BFC0008B5007CFFF790FC40EAE07008BD007C33
:104C0C00FFF79ABC37B5457C04462DB1207C03B028
:104C1C00BDE83040FFF770BC007C0191FFF79CFCB5
:104C2C0000280199F2DC284603B030BD10B51421E0
:104C3C000446FFF734FA204610BD000010B54FF4BF
:104C4C007A730446084611460022C4E90123044B3A
:104C5C002360012320746374FFF786FC204610BD8B
:104C6C00A4530B00417470477047704708B500217E
:104C7C00007CFFF7A1FC40EAE07008BD08B50121FB
:104C8C00007CFFF799FC40EAE07008BD08B5007C99
:104C9C00FFF78AFC20EAE07008BD08B5007CFFF73E
:104CAC007BFC20EAE07008BD13B50446007C019142
:104CBC00FFF77AFC0028019901DC607C20B1207C94
:104CCC00FFF782FC20EAE07002B010BD007CFFF719
:104CDC0083BC10B514210446FFF7E1F9204610BD42
:104CEC0010B54FF47A73044608460021C4E9011349
:104CFC00044B23600123207463741146FFF73CFCC2
:104D0C00204610BDD4530B00007C0022FFF73CBCA6
:104D1C0010B514220446002100F01CFA204610BDE8
:104D2C0010B50F4C88B003A8FFF7F2FF2178BFF342
:104D3C005B8F11F001010FD120460191FFF7B1F902
:104D4C00019948B103AA0748FFF7CAFF2046FFF7AD
:104D5C00ADF9054800F0EAF9024808B010BD00BFF3
:104D6C00F4E60320F8E60320754C0B0000224068A3
:104D7C001146FFF77DBC002240681146FFF798BC36
:104D8C00002240681146FFF7A3BC40680022FFF7E1
:104D9C0097BC4068002281F00101FFF781BC002321
:104DAC0040681A461946FFF773BC002340681A4640
:104DBC001946FFF765BC002240681146FFF748BC56
:104DCC00406800220221FFF74BBC002340681A46C2
:104DDC00FFF736BC024B04225A60024A1A60704735
:104DEC000CE7032004540B00014B1860704700BF04
:104DFC001CE6032008B50B4B43B1FFF791FF03688A
:104E0C001B699847002801DDAFF30080064B43B1C6
:104E1C0000F060F903681B699847002801DDAFF3C7
:104E2C00008008BD000000000000000008B5FFF77E
:104E3C00E1FFFFF7D1FA014B186008BD28E703200A
:104E4C000548064A064908B5121A00F075F9054BD3
:104E5C00054A1A6008BD00BF00F4032004F40320C7
:104E6C006C550B0000F403201E1C279A07B5002379
:104E7C0000931A466FF07701FFF7D0FB03B05DF893
:104E8C0004FB000007B543880A2B08D0502B0BD12C
:104E9C00094B1B684BB103B05DF804EB1847FFF7E7
:104EAC00E5FF03B05DF804FB002300931A466FF096
:104EBC007701FFF7B3FBF4E718E7032010B51248AE
:104ECC000021FFF73DFC114B1A68114B9A42114B14
:104EDC000CBF012200221A7001D0FFF7B1FFFFF7BF
:104EEC0073FA044600F03EF90B4B13B12046AFF3B6
:104EFC00008000210848FFF79BFBBDE810400748E5
:104F0C000021FFF781BB00BFF54D0B0000F403201F
:104F1C001E1C279A14E7032000000000914E0B0082
:104F2C00232813B502D9002002B010BDA0F10B0349
:104F3C00022B1AD8174C2178BFF35B8F11F00101AB
:104F4C000BD120460191FFF7ACF8019928B112481A
:104F5C00FFF710FE2046FFF7A9F80F4B1878FFF764
:104F6C00C3FA0028DFD10120DEE7012809D800F0C0
:104F7C0071F80021007CFFF787FA80F00100C0B2C5
:104F8C00D2E709380128EED800F0A4F8007CFFF72E
:104F9C00DBFAF2E71CE7032020E70320232838B5CF
:104FAC0004460D460AD8FF2908D0FFF7B9FF28B1EF
:104FBC0029462046BDE83840FFF71EBA38BD38B543
:104FCC0004460D46FFF720FAFF2810D0062804D817
:104FDC004D2323FA00F0C30709D42046FFF7A0FFA6
:104FEC0028B129462046BDE83840FFF715BA38BD30
:104FFC000D2810B504469CBF0E34A4B22046FFF712
:10500C008FFF50B103212046FFF7EEF9032804D19E
:10501C002046BDE81040FFF707BA002010BD7047CE
:10502C0038B50A4B0360012304464361084920202C
:10503C0000F074F8202560600549A560284600F052
:10504C006DF8C4E90305204638BD00BF1800010007
:10505C0038540B0030B50E4D2978BFF35B8F11F02F
:10506C00010487B011D12846FFF71BF868B16846D8
:10507C00FFF7D6FF6A4621460648FFF7DBFB2846BA
:10508C00FFF714F8044800F051F8024807B030BD9F
:10509C002CE7032030E703202B500B007047000057
:1050AC0038B5044614252A46002100F053F8258013
:1050BC004025074925812846258200F02FF8044910
:1050CC006060284600F02AF8E060204638BD00BF3A
:1050DC0038540B0030B50E4D2978BFF35B8F11F0AF
:1050EC00010487B011D12846FEF7DBFF68B101A897
:1050FC00FFF7D6FF01AA21460648FFF79FFD284679
:10510C00FEF7D4FF044800F011F8024807B030BD98
:10511C0044E7032048E70320A9500B00FEF7BDBF6E
:10512C0008B5FFF7FDFA08B5FFF7FAFA00230146B8
:10513C001A46184600F044B80A44914200F1FF3375
:10514C0000D1704710B511F8014B03F8014F914293
:10515C00F9D110BD02440346934200D1704703F8C5
:10516C00011BF9E738B5104B1D68AB6B0446B3B99E
:10517C001820FFF7C5FA0246A86320B90B4B0C4860
:10518C004221FFF7D5FA0B490B4BC0E900130B4B2F
:10519C0083600B23838100210120C2E90401AB6BE6
:1051AC0000221C615A6138BD1CE6032039540B00E7
:1051BC0050540B000E33CDAB34126DE6ECDE050013
:1051CC002DE9F843DFF8B8800646D8F800001F46F2
:1051DC000D46914600F056F8254B1C6834B9254C09
:1051EC001C60254B13B11B68C4F8883063681F2BF7
:1051FC0007DDD8F8000000F047F84FF0FF30BDE8AD
:10520C00F8834EB3D4F8880088B91C4B23B9D8F86E
:10521C00000000F038F8F0E74FF48470FFF770FAF4
:10522C000028F4D00023C0E94033C4F88800636838
:10523C0040F8239001229A4000EB8301D0F8003112
:10524C001343C0F80031022EC1F8807002BFD0F8B1
:10525C0004311343C0F804316368D8F800005A1CB9
:10526C000233626044F8235000F00EF80020C6E7C9
:10527C00E8E703205CE70320000000000D470B006B
:10528C0080E6032070477047704700002D400B00EC
:10529C0069400B0091400B0095400B000000000092
:1052AC00766563746F723A3A5F4D5F7265616C6CD0
:1052BC006F635F696E73657274000000000000001C
:1052CC0000000000CB470B00C1470B00B7470B0099
:1052DC00AD470B00A1470B0095470B00BD490B00D8
:1052EC00C5490B0089470B0081470B0077470B0022
:1052FC006D470B00F5490B0000000000000000009A
:10530C00E9470B0033480B000B480B00EB470B0035
:10531C0013480B001B480B0023480B002B480B00B9
:10532C0000000000000000008D480B007D480B00C1
:10533C007F480B006170700000000000000000004E
:10534C007D490B0087490B0091490B009B490B00D1
:10535C00A5490B00B1490B00BD490B00C5490B0019
:10536C00CD490B00D9490B00E1490B00EB490B006F
:10537C00F5490B0025592D256D2D25645425483AEA
:10538C00254D3A2553257A0061736374696D650068
:10539C000000000000000000CD4B0B00394C0B004E
:1053AC00114C0B00E14A0B00E14B0B00FD4B0B00C9
:1053BC00EF4B0B000B4C0B00CF4B0B00D34B0B00EC
:1053CC000000000000000000774C0B00DF4C0B00CD
:1053DC00B54C0B00E14A0B00A74C0B00794C0B00B1
:1053EC00894C0B00D94C0B00994C0B00714C0B00E9
:1053FC000000000000000000D74D0B00CD4D0B004D
:10540C00C34D0B00794D0B00B74D0B00AB4D0B0092
:10541C00BD490B00C5490B009F4D0B00974D0B0070
:10542C008D4D0B00834D0B00F5490B00005245458B
:10543C004E54206D616C6C6F63207375636365658E
:10544C00646564002F746D702F6A656E6B696E7382
:10545C002D4743432D31302D706970656C696E6535
:10546C002D34385F32303230313132345F313630B6
:10547C00363138303633392F7372632F6E65776C53
:10548C0069622F6E65776C69622F6C6962632F732A
:10549C0074646C69622F72616E642E63000000008C
:1054AC0075430B005D470B00D5470B006D490B0096
:1054BC00CD4A0B00754B0B00954B0B00B94B0B00F9
:0454CC00E14D0B00A3
:1054D000040000001400000003000000474E5500C7
:1054E000B09374CBAE76DC37EEBC34B41819387B8D
:0454F00074192C12ED
:1054F40000000100020003000400000094530B00AC
:1055040020E603200000000000000000000000006E
:105514000000000000000000000000000000000087
:105524000000000000000000000000000000000077
:105534000000000000000000000000000000000067
:105544000000000000000000000000000000000057
:105554000000000000000000000000000000000047
:0855640000000000ECE7032049
:04556C00000000003B
:1055760000000102030405060708090A0B0C0D0EBC
:105586000F101112131415161718191A1B1C1D1EAD
:045596001F202800AA
:04559A0078563412F9
:04000003B000401CED
:00000001FF
